:100000000C9462000C948A000C948A000C948A0070
:100010000C948A000C948A000C948A000C948A0038
:100020000C948A000C948A000C948A000C948A0028
:100030000C948A000C948A000C948A000C948A0018
:100040000C9467030C948A000C9435030C940F03F2
:100050000C948A000C948A000C948A000C948A00F8
:100060000C948A000C948A000000000024002700F1
:100070002A0000000000250028002B0000000000DE
:1000800023002600290004040404040404040202DA
:100090000202020203030303030301020408102007
:1000A0004080010204081020010204081020000012
:1000B0000008000201000003040700000000000027
:1000C0000000F40411241FBECFEFD8E0DEBFCDBF87
:1000D00011E0A0E0B1E0E2E5FAE002C005900D9287
:1000E000A231B107D9F721E0A2E1B1E001C01D9230
:1000F000A83BB207E1F710E0C2E6D0E004C02197C8
:10010000FE010E942105C136D107C9F70E94B10343
:100110000C9427050C940000AF92BF92CF92DF920F
:10012000EF92FF920F931F93CF93DF936C017B01AC
:100130008B01040F151FEB015E01AE18BF08C0173D
:10014000D10759F06991D601ED91FC910190F081B0
:10015000E02DC6010995892B79F7C501DF91CF9173
:100160001F910F91FF90EF90DF90CF90BF90AF90D5
:100170000895FC01538D448D252F30E0842F90E0AD
:10018000821B930B541710F0CF9608950197089592
:10019000FC01918D828D981761F0A28DAE0FBF2F5B
:1001A000B11D5D968C91928D9F5F9F73928F90E0B1
:1001B00008958FEF9FEF0895FC01918D828D981720
:1001C00031F0828DE80FF11D858D90E008958FEF5D
:1001D0009FEF0895FC01918D228D892F90E0805C26
:1001E0009F4F821B91098F73992708958BE191E0AE
:1001F0000E94EA0021E0892B09F420E0822F089573
:1002000080E090E0892B29F00E94F60081110C9487
:1002100000000895FC01A48DA80FB92FB11DA35AA9
:10022000BF4F2C91848D90E001968F739927848F16
:10023000A689B7892C93A089B1898C918370806439
:100240008C93938D848D981306C00288F389E02DDA
:1002500080818F7D80830895EF92FF920F931F938B
:10026000CF93DF93EC0181E0888F9B8D8C8D981369
:100270001AC0E889F989808185FF15C09FB7F89475
:10028000EE89FF896083E889F989808183708064C1
:1002900080839FBF81E090E0DF91CF911F910F910C
:1002A000FF90EF900895F62E0B8D10E00F5F1F4F1B
:1002B0000F731127E02E8C8D8E110CC00FB607FC2A
:1002C000FACFE889F989808185FFF5CFCE010E94B8
:1002D0000A01F1CFEB8DEC0FFD2FF11DE35AFF4F1B
:1002E000F0829FB7F8940B8FEA89FB898081806246
:1002F000CFCFCF93DF93EC01888D8823B9F0AA8903
:10030000BB89E889F9898C9185FD03C0808186FDD0
:100310000DC00FB607FCF7CF8C9185FFF2CF80811F
:1003200085FFEDCFCE010E940A01E9CFDF91CF9189
:100330000895833081F028F4813099F08230A9F05B
:1003400008958730A9F08830C9F08430B1F48091E5
:1003500080008F7D03C0809180008F778093800024
:10036000089584B58F7784BD089584B58F7DFBCFC4
:100370008091B0008F778093B00008958091B00095
:100380008F7DF9CFCF93DF93282F30E0F901E2552D
:10039000FF4F8491F901E656FF4FD491F901EA57D6
:1003A000FF4FC491CC23A1F081110E949901EC2F41
:1003B000F0E0EE0FFF1FE458FF4FA591B491EC91D0
:1003C000ED2381E090E009F480E0DF91CF91089582
:1003D00080E090E0FACF1F93CF93DF93282F30E097
:1003E000F901E255FF4F8491F901E656FF4FD49190
:1003F000F901EA57FF4FC491CC23A9F0162F8111C0
:100400000E949901EC2FF0E0EE0FFF1FEE58FF4F16
:10041000A591B4918FB7F894EC91111108C0D095C3
:10042000DE23DC938FBFDF91CF911F910895DE2BE8
:10043000F8CFCF93DF9390E0FC01E656FF4F249175
:100440008A579F4FFC0184918823D1F090E0880F58
:10045000991FFC01E859FF4FA591B491FC01EE589A
:10046000FF4FC591D49161110EC09FB7F8948C9144
:10047000E22FE0958E238C932881E223E8839FBFAF
:10048000DF91CF9108958FB7F894EC91E22BEC9324
:100490008FBFF6CF1F93CF93DF93182FEB0161E04F
:1004A0000E941902209739F460E0812FDF91CF91EB
:1004B0001F910C94EB01E12FF0E0E255FF4FE49126
:1004C000E33039F148F4E130B9F0E230E9F0C03816
:1004D000D10554F361E0E9CFE73029F1E83059F173
:1004E000E430A9F780918000806280938000D093EF
:1004F0008B00C0938A0004C084B5806884BDC7BDEA
:10050000DF91CF911F91089584B5806284BDC8BDED
:10051000F7CF80918000806880938000D09389001D
:10052000C0938800EDCF8091B00080688093B000C8
:10053000C093B300E5CF8091B00080628093B0009B
:10054000C093B400DDCF3FB7F8948091170190912C
:100550001801A0911901B0911A0126B5A89B05C0F8
:100560002F3F19F00196A11DB11D3FBFBA2FA92F32
:10057000982F8827BC01CD01620F711D811D911D2F
:1005800042E0660F771F881F991F4A95D1F708959B
:100590008F929F92AF92BF92CF92DF92EF92FF9293
:1005A0000E94A3026B017C0192E0892E912CA12C68
:1005B000B12C0E94A3026C197D098E099F09683E27
:1005C000734081059105A8F328EEC20E23E0D21EE8
:1005D000E11CF11C8A9489288A288B2829F0812C17
:1005E000912C54018394E5CFFF90EF90DF90CF9052
:1005F000BF90AF909F908F90089570E060E086E08C
:100600000E944A0260E087E00E94EB0170E060E037
:1006100085E00E944A0260E084E00C94EB011F92A6
:100620000F920FB60F9211242F933F934F935F9326
:100630006F937F938F939F93AF93BF93EF93FF93AA
:100640008BE191E00E940A01FF91EF91BF91AF9180
:100650009F918F917F916F915F914F913F912F91DA
:100660000F900FBE0F901F9018951F920F920FB60C
:100670000F9211242F938F939F93EF93FF93E09109
:100680002B01F0912C018081E0913101F091320138
:1006900082FD1BC09081809134018F5F8F73209108
:1006A0003501821741F0E0913401F0E0E55EFE4F44
:1006B000958F80933401FF91EF919F918F912F91AE
:1006C0000F900FBE0F901F9018958081F4CF1F924E
:1006D0000F920FB60F9211242F933F938F939F93F6
:1006E000AF93BF938091130190911401A0911501D4
:1006F000B09116013091120123E0230F2D3758F5E8
:100700000196A11DB11D20931201809313019093B6
:100710001401A0931501B0931601809117019091D7
:100720001801A0911901B0911A010196A11DB11DE6
:100730008093170190931801A0931901B0931A01A7
:10074000BF91AF919F918F913F912F910F900FBECD
:100750000F901F90189526E8230F0296A11DB11D3A
:10076000D2CF789484B5826084BD84B5816084BD25
:1007700085B5826085BD85B5816085BD80916E003F
:10078000816080936E001092810080918100826070
:1007900080938100809181008160809381008091AD
:1007A00080008160809380008091B100846080939C
:1007B000B1008091B00081608093B00080917A0098
:1007C000846080937A0080917A00826080937A00BE
:1007D00080917A00816080937A0080917A008068AD
:1007E00080937A001092C10061E086E00E941902B5
:1007F00061E087E00E94190261E085E00E94190231
:1008000061E084E00E94190260E088E00E94190221
:1008100060E08CE00E94190260E08BE00E94190207
:1008200060E08AE00E941902E0912B01F0912C0116
:1008300082E08083E0912701F09128011082E0910D
:100840002901F0912A0180E1808310923301E09127
:100850002F01F091300186E08083E0912D01F0912D
:100860002E01808180618083E0912D01F0912E0125
:10087000808188608083E0912D01F0912E0180813C
:1008800080688083E0912D01F0912E0180818F7D21
:10089000808380E0A82E80E0B82E8CE00E94C20108
:1008A0006C0188E00E94C2017C018BE00E94C201C1
:1008B000EC018AE00E94C2018C0181E0C816D104DB
:1008C000C9F5E114F10409F063C0C130D10509F0A4
:1008D00078C060EA70E001301105C9F1A114B104DB
:1008E000E1F20E94F6008823C1F20E940000D5CFF9
:1008F000209709F057C00130110509F04EC062E899
:1009000070E086E00E944A0260E087E00E94EB010E
:1009100060EA70E085E00E944A0260E084E00E94A4
:10092000EB010E94C8020E94FD020E94C8022197AA
:10093000A9F640C0CD2891F681E0E816F104F1F463
:10094000219761F60130110549F664EB70E086E00D
:100950000E944A0260E087E00E94EB0162E870E0DA
:1009600085E00E944A0260E084E00E94EB010E9460
:10097000C8020E94FD020E94C802B0CFEF2809F011
:10098000ADCFCD2B09F0AACF012B09F0A7CF16C010
:1009900081E0E816F10409F4ABCFEA94EF2809F0FE
:1009A0009DCFC5CF219709F099CF62E870E001157E
:1009B000110581F00130110509F090CF0E94FD0270
:1009C0008DCFCD2B09F08ACF0130110509F086CFEC
:1009D00064EB70E086E00E944A0260E087E00E94DB
:1009E000EB0164EB70E0BCCFEBE1F1E0138212822B
:1009F00088EE93E0A0E0B0E084839583A683B7837C
:100A000084E091E09183808385EC90E095878487F2
:100A100084EC90E09787868780EC90E0918B808BC8
:100A200081EC90E0938B828B82EC90E0958B848BB1
:100A300086EC90E0978B868B118E128E138E148E1F
:100A40000895EE0FFF1F0590F491E02D0994F8949E
:020A5000FFCFD6
:100A5200000000002C018C00B9007901EA00C800F6
:020A6200DC00B6
:00000001FF
